:020000040800F2
:10000000D857002061020008C5550008793B000858
:1000100025530008B50F0008916800080000000093
:10002000000000000000000000000000A101000826
:100030002512000800000000FD0100084D600008C6
:100040007B0200087B0200087B0200087B0200089C
:100050007B0200087B0200087B0200087B0200088C
:100060007B0200087B0200087B0200087B0200087C
:100070007B0200087B0200084511000851110008AE
:100080007B0200085D1100087B0200087B0200086B
:100090007B0200087B0200087B0200087B0200084C
:1000A0007B0200087B0200087B0200087B0200083C
:1000B0001D61000829610008356100087B02000805
:1000C0007B0200087B0200087B02000879590008C7
:1000D0007B0200086D6800087968000885680008E0
:1000E0007B0200087B0200087B0200087B020008FC
:1000F0007B020008596100087B0200087B020008AF
:100100007B0200087B020008416100087B020008B6
:10011000DD6300087B0200087B0200084D610008D7
:10012000691100087B0200087B0200087B020008BE
:100130007B0200087B0200087B0200087B020008AB
:100140007B0200087B0200087B0200087B0200089B
:100150007B0200087B020008751100087B02000882
:100160007B0200087B0200087B0200087B0200087B
:100170007B0200087B0200087B02000800000000F0
:100180007B0200087B020008DFF810D000F01CFCA6
:1001900000480047E57A0008AFF30080D8570020F8
:1001A0002C4B19680868B0E8F04F80F30988BFF35A
:1001B0006F8F4FF0000080F311887047000000003F
:1001C00008480068006880F308884FF0000080F35A
:1001D000148862B661B6BFF34F8FBFF36F8F00DF35
:1001E00000BF00BF08ED00E0DFF80C00016841F43B
:1001F00070010160704700BF88ED00E0EFF30980F7
:10020000BFF36F8F134B1A681EF0100F08BF20ED5D
:10021000108A20E9F04F106009B44FF0500080F3CD
:100220001188BFF34F8FBFF36F8F08F09DFB4FF026
:10023000000080F3118809BC19680868B0E8F04F25
:100240001EF0100F08BFB0EC108A80F30988BFF3CE
:100250006F8F704714000020EFF305807047000097
:100260000648804706480047FEE7FEE7FEE7FEE750
:10027000FEE7FEE7FEE7FEE7FEE7FEE70D610008AA
:10028000890100082DE9F05F0546002092469B4653
:1002900088460646814640241BE02846414647469C
:1002A000224600F072FA53465A46C01A914110D3C2
:1002B00011461846224600F059FA2D1A67EB01083C
:1002C0004F4622460120002100F050FA17EB0009AA
:1002D0004E41201EA4F10104DFDC484631462A4687
:1002E0004346BDE8F09F10B540EA01040346A40769
:1002F00003D009E010C9121F10C3042AFAD203E088
:1003000011F8014B03F8014B521EF9D210BDD2B2C5
:1003100001E000F8012B491EFBD270470022F6E7EE
:1003200010B513460A4604461946FFF7F0FF20466B
:1003300010BD2DE9FE4F804681EA0300C00F0C4638
:10034000009021F0004123F00045B8EB0200A941E4
:1003500005D24046214690461C460B46024623F0F5
:100360000040104347D0270DC7F30A00C3F30A51DA
:100370000290401A019040286BDAC3F3130040F456
:10038000801B0098924620B10023D2EB030A63EB56
:100390000B0B01985946C0F14002504600F0E6F9B7
:1003A00006460D4650465946019A00F0FEF910EBFC
:1003B00008006141002487EA115284EAE7731A4376
:1003C00040D0009A62B3019A012A4FEA075215DC25
:1003D000001B61EB02014FF0004202EA0752CDE937
:1003E0000042001C41F5801132462B4600F035FAE0
:1003F00003B0BDE8F08F40462146F9E7001B61EBF2
:100400000201001C41F5801300185B412018A2F581
:10041000001747EB030140EAD570B6196D4111E0B2
:100420006D084FEA360645EAC0754FEA0752001BD1
:1004300061EB0201001C41F5801149084FEA3000D0
:100440000019514132462B4603B0BDE8F04F00F091
:10045000F5B90098012240000023D0EB020263EBC3
:10046000E073009821464FEAE074B8EB000061EBBE
:100470000401E9E783F000435BE781F0004158E7BE
:100480002DE9FE4F81EA030404F0004421F000410D
:1004900000944FF0000B23F0004350EA01045ED0BB
:1004A00052EA03045BD0C3F30A54C1F30A552C4447
:1004B000A4F2F3340194A0FB0254C1F3130141F4FC
:1004C0008011C3F3130343F4801301FB024400FBC8
:1004D000034E840A970A44EA815447EA8357A4FBEF
:1004E000076802958D0A05FB07854FEA932C04FBEC
:1004F0000C542705029D4FEA065847EA1637B5EB1C
:1005000008056EEB070C870E920E47EA811742EA48
:100510008312A7FB0201B6EB0B0164EB00042B0D69
:1005200043EA0C335E1844EB1C50DA465146E7FBB5
:100530000201C5F313044FEA0B3343EA14534FEAA5
:100540000432019C43EA0603A4F10C040294009CCB
:10055000CDE900B400F081F903B0BDE8F08F0020D0
:100560000146F9E72DE9F04D81EA030404F0004B60
:1005700021F0004514464FF0000A23F0004150EAF4
:10058000050220D054EA01021DD0C5F30A570246E5
:10059000C5F31303C1F31300C1F30A5640F48015E9
:1005A00043F48013A7EB0608101BD64608F2FD386B
:1005B00073EB050002D308F1010801E092185B41DA
:1005C000B8F1000F03DA00200146BDE8F08D0020ED
:1005D0004FF48011064684460EE0171B73EB0507A7
:1005E00005D3121B63EB050306434CEA010C4908D3
:1005F0004FEA300092185B4150EA0107EDD152EA10
:10060000030012D082EA040083EA0501084305D002
:10061000101BAB4106D20122002306E000224FF05E
:10062000004302E06FF0010253101AEB06004CEB9E
:10063000085110EB0A0041EB0B01BDE8F04D00F052
:10064000FDB80EB5C10F80EAE0700844CA0700216A
:1006500040F233438DE80E000A460B4600F0FDF8E9
:1006600003B000BD0EB540F2334102910021CDE947
:1006700000110A460B4600F0F0F803B000BDC1F3CC
:100680000A5210B5C1F3130140F2FF3341F4801157
:100690009A4201DA002010BD40F233439A42A2F29E
:1006A000334203DC524200F070F810BD904010BDA0
:1006B00000F0004230F000400AD0C10D01F5607139
:1006C000C0F3160042EA0151C208400711437047C7
:1006D000002001467047000030B5041E71F100048F
:1006E00004DB4FF00044404264EB0101141E73F13F
:1006F000000405DB1C464FF00043524263EB040349
:10070000994208BF904230BD01F0004330B421F05F
:10071000004150EA010206D00A0DA2F56072C1F351
:100720001301002A02DC30BC00207047440F44EA69
:10073000C104C100E01830BC00EBC25000F047B863
:1007400030B50B46014600202022012409E021FAA1
:1007500002F59D4205D303FA02F5491B04FA02F59E
:100760002844151EA2F10102F1DC30BD202A04DB71
:10077000203A00FA02F1002070479140C2F12003B4
:1007800020FA03F3194390407047202A04DB203AF3
:1007900021FA02F00021704721FA02F3D040C2F1A1
:1007A00020029140084319467047202A06DBCB17E8
:1007B000203A41FA02F043EAE07306E041FA02F31C
:1007C000D040C2F1200291400843194670470029E9
:1007D000A8BF7047401C490008BF20F001007047C7
:1007E00010B4B0FA80FC00FA0CF050EA010404BF27
:1007F00010BC704749B1CCF1200421FA04F411FA7D
:100800000CF118BF012121430843A3EB0C01CB1DC0
:100810004FEA00614FEA102042BF002010BC704731
:1008200000EBC35010440029A4BF10BC7047401C0B
:10083000490008BF20F0010010BC704710B5141E1D
:1008400073F1000408DA401C41F1000192185B4189
:100850001A4301D120F0010010BD2DE9F04D924660
:100860009B4611B1B1FA81F202E0B0FA80F2203277
:100870009046FFF77BFF04460F4640EA0A0041EA34
:100880000B0153465A46084313D0114653EA010060
:1008900019D0C8F140025046FFF777FF05460E46D3
:1008A000504659464246FFF761FF084305D00120F4
:1008B00004E020463946BDE8F08D0020054346EAB5
:1008C000E0762C4337430A986305E40AA0EB08005E
:1008D0000022FD0A44EA47540A3002D500200146AE
:1008E000E9E7010510196941DDE908450019694189
:1008F000BDE8F04DA2E72DE9F04D00231A461B1A82
:100900008A4103DB00200146BDE8F08DC1F30A52A5
:10091000C1F3130141F480154FF0000BD10702D150
:1009200000186D41521E0027044640F2FF11384660
:1009300001EB620A3E468046024600204FF48011D9
:10094000FFF723FFC2197141BB1846EB0100B4EB5E
:10095000030C75EB000C04D3E41A65EB0005174695
:100960000E46241908F101006D4180463428E3DD6C
:10097000F91946EB0600091BA84103D24FF0FF32DC
:10098000134601E0002213461BEB070046EB0A5119
:10099000BDE8F04DFFF752BFC1F30A52C1F3130196
:1009A00040F2FF3341F480119A4202DA00200146FE
:1009B000704740F233439A42A2F2334202DC524281
:1009C000FFF7E3BEFFF7D2BE064C074D06E0E06836
:1009D00040F0010394E8070098471034AC42F6D386
:1009E000FFF7D6FB78CB000898CB0008002800DC86
:1009F0004042704710B50146806B026C12F0500FF8
:100A000005D0026CD20626D500F06CFD10BD016C3D
:100A100041F40071016401688A6812F0405F17D1E7
:100A2000027EAAB9CA6A12F4700F02D08A6852050F
:100A30000ED44A6822F020024A60016C21F48071D1
:100A40000164016CC90403D4016C41F0010101642B
:100A500000F046FD10BD806BC26CBDE8104008463A
:100A6000104710B5806B40210164416C41F00401D6
:100A7000416400F037FD10BD10B5806B00F031FD12
:100A800010BD0000464910B54A6822F440324A6061
:100A90004A6843681A434A6001684A6822F48072CF
:100AA0004A6001684A68036942EA03224A600168B1
:100AB0004A6822F040724A6001684A6883681A43B3
:100AC0004A6001688A6822F400628A6001688A6864
:100AD000C3681A438A60816A6FF07062D14201680C
:100AE0008A6822F070628A6001688A680CD0836A22
:100AF0001A438A6001688A6822F040528A6001685D
:100B00008A68C36A1A4301E022F040528A60016891
:100B10008A6822F002028A6001688A68037E42EADB
:100B200043028A6090F82010002901684A680FD0BB
:100B300042F400624A6001684A6822F460424A60F6
:100B400001684A68174C436A04EB43331A4301E0D7
:100B500022F400624A600168CA6A22F47002CA6222
:100B60000168CA6A838B104C04EB03531A43CA62B0
:100B700001688A6822F400728A6001688A6890F8C5
:100B8000303042EA43228A6001688A6822F4806237
:100B90008A6001688A68406942EA8020886010BDE6
:100BA0000023014000E0FFFF0000F0FF40F252325E
:100BB0005342914201DD114602E0994200DA1946A2
:100BC000007801280CD002280FD0032812D0042866
:100BD00015D101F5617189B25FF0050004F062BFC3
:100BE00001F5617189B20120F8E701F5617189B2FF
:100BF0000220F3E701F5617189B20320EEE7704747
:100C00002DE9F041054600EE105A0C462DED0E8BF5
:100C1000F8EEC00A00EE104A1746B8EEC01A80EE91
:100C2000810A10EE100AFFF743FD41EC100B06F0AD
:100C300053F89FEDD09B51EC100B53EC192BFFF7A1
:100C40001FFCFFF761FD00EE100AB2EE048ACB48EC
:100C500020EE080A002C80ED010A03DAB1EE400A0A
:100C600080ED010A9FEDC6CADFEDC6EADFEDC6DA08
:100C7000DFF8088308F1100815FB05F014FB0400E9
:100C8000FFF7DFFCDFEDC1CADFEDC18ADFEDC1BADE
:100C90009FEDC1DA08F120059FEDC0AAA5F110066D
:100CA000A5F14804212F7CDA41EC100B06F080F905
:100CB00051EC100BFFF728FD0BEE100AC7F12100D5
:100CC00000EE100AB8EEC0EA2EEE0E0A0BEE0B0A8A
:100CD00010EE100AFFF7ECFC41EC100B06F068F97F
:100CE00051EC100BFFF710FD0AEE900A0AEEAACAAB
:100CF0002AEEAC1A7CEE6E0A80EE810A10EE100A23
:100D0000FFF7D6FC41EC100B05F03AFE53EC192B23
:100D100051EC100BFFF7B4FB8EEE0B0A41EC1C0BF1
:100D200010EE100AFFF7C4FC41EC100B05F0D4FFE5
:100D300053EC192B51EC100BFFF7A2FB53EC1C2BBF
:100D4000FFF7F7FAFFF7E0FC4AEEEA8A206188EE47
:100D5000AB0A10EE100AFFF7ABFC41EC100B05F0EC
:100D60000FFE53EC192B51EC100BFFF789FBFFF72B
:100D7000CBFCD4ED040A00EE100A3DEE601A60EEE2
:100D8000880A31EE401A20EE080A31EE2D1A21EEC3
:100D9000081A85ED011A84ED050AC4ED040A54E031
:100DA000FFE755D141EC100B06F002F951EC100BA6
:100DB000FFF7AAFC0AEE900A0AEEAACA2AEEAC1ABB
:100DC0007CEE6E0A80EE810A10EE100AFFF770FCCE
:100DD00041EC100B05F0D4FD53EC192B51EC100B2A
:100DE000FFF74EFBFFF790FC4AEEEA8A206188EE9F
:100DF000AB0A10EE100AFFF75BFC41EC100B05F09C
:100E0000BFFD53EC192B51EC100BFFF739FBFFF72B
:100E10007BFCD4ED041A00EE100A7DEE610A70EE40
:100E2000C00A20EE080A30EEAD1A71EEAD0A21EECE
:100E3000081A60EE880A85ED011A84ED050AC4EDF2
:100E4000040A7AEE600AC8ED010A3AEE400A8BE025
:100E5000213F00EE107AF8EEC0DA41EC100B06F0FC
:100E6000A7F851EC100BFFF74FFC2DEEAD0A0BEE7F
:100E7000100A0BEE0B0A10EE100AFFF719FC41ECFA
:100E8000100B06F095F851EC100BFFF73DFC0AEE45
:100E9000900ADFED430A2AEEAC1A4AEEAA0A80EE67
:100EA000810A10EE100AFFF703FC41EC100B05F06D
:100EB00067FD53EC192B51EC100BFFF7E1FA8DEEA7
:100EC0008B0A41EC1C0B10EE100AFFF7F1FB41EC12
:100ED000100B05F001FF53EC192B51EC100BFFF731
:100EE000CFFA53EC1C2BFFF724FAFFF70DFC4AEE68
:100EF000EA8A2061C8EEABAA1AEE900AFFF7D8FB87
:100F000041EC100B05F03CFD53EC192B51EC100B90
:100F1000FFF7B6FAFFF7F8FB60611AEE900A10F1DE
:100F2000814F03D99FED1F0A84ED050AD4ED040A11
:100F300094ED051A3DEE600A30EE410A20EE080AF3
:100F400085ED010A20EE880ADFED170A30EE200A4F
:100F500061EE080A84ED040A3AEE400AC4ED050A7F
:100F600088ED010A3AEE600A86ED010ABDEC0E8BAF
:100F7000BDE8F08161376C5B94A94C40845200203D
:100F800000E2B64600103D460000B442000099431E
:100F900000B50A47007C03470000B4430000E14469
:100FA00000B430460000344300006144012006F0E4
:100FB000EBFDFBE7FEE74FF47A74204606F0E4FD14
:100FC000FBE70000184901F1500291ED030AD2ED50
:100FD000030A283A70EE200AB6EE000A60EE800A94
:100FE000C0ED010AD1ED030A92ED031A503270EE02
:100FF000C10A20EE800A80ED020AD1ED030A92EDCB
:10100000030AA03130EE600AD1ED060A91ED051A0F
:1010100070EE810AB0EE001A60EE810A80EE201AAE
:1010200080ED031A704700005851002070B51F4929
:10103000002001F1280208700123137001F1500310
:1010400002241C7001F17804032525704FF4E1653A
:101050004D8355835D836583B4258D8395839D83FF
:10106000A583C883D083D883E08328341E202080C2
:101070009FED0F0A4FF4FA7084ED010A608004209E
:101080009FED0C0A208184ED040A9FED0B0B51ECBF
:10109000100BFFF739FB9FED0A0AE06084ED060AAA
:1010A000B4EE000A84ED050A70BD0000585100201E
:1010B0008FC2753D00606A4754D12E4B9F20C83FB8
:1010C000AE47E13D1148D0ED061A90ED052AA03853
:1010D00031EE822A70EE801A30EE600AF0EE612A5C
:1010E000F0EE400A41EE422A41EE420A01EE020AC7
:1010F00041EE021AC0ED022A2830C0ED020A283063
:1011000080ED020A2830C0ED021A7047F851002025
:10111000024610B500200A4B012901D069B110BD6B
:10112000002103E05C5C6040491CC9B29142F9D3E4
:1011300010BD5C5C6040491CC9B29142F9D310BD3E
:10114000A0020020014800F00DBC00006812002041
:10115000014800F007BC000028100020014800F002
:1011600001BC0000A8110020014800F0FBBB0000FA
:10117000780A0020014800F0F5BB0000E8100020CC
:1011800001681823CAB2103AB2FBF3F2054B6FF3B1
:101190000901032A9B5CC36500D9091D81650846C6
:1011A00070470000D894000810B5014600208B69F4
:1011B0008A6A4FF0C07453B1B3F5005F15D072B1B5
:1011C000012A0CD0022A0AD0032A09D104E01AB15C
:1011D000012A06D0022A03D1C96AC90100D501201B
:1011E00010BDC96AA142FAD010BD002AF7D0012A69
:1011F000F2D0022AF3D0032AF3D010BD30B5046830
:10120000256825F480252560046863608368402B89
:10121000036803D099600068C26030BD9A600068BE
:10122000C16030BD7047000007F016FF53494860A9
:1012300004F07AF8544CDFF84881DFF8489104F163
:10124000280504F1500604F178074C480A21001DD6
:1012500007F0B4FA4C4804F09FF84B48283004F0EB
:101260009BF84948503004F097F84748783004F02C
:1012700093F84548BC30FFF7A5FED8F80000484574
:101280004DDD4148CC3090EC030AFFF71BFFD4ED55
:10129000020A94ED030A3C4802F004FE3A48D5EDF8
:1012A000020A95ED030A283002F0FCFD3648D6ED1F
:1012B000020A96ED030A503002F0F4FD3248D7EDF1
:1012C000020A97ED030A783002F0ECFD2E4894ED07
:1012D000040A0C3006F0BCFB94ED030A2A4884EDA6
:1012E000040A95ED040A343006F0B2FB95ED030ACA
:1012F000254885ED040A96ED040A5C3006F0A8FB4B
:1013000096ED030A204886ED040A97ED040A84301E
:1013100006F09EFB97ED030A87ED040A95E700218E
:10132000194804F0C5F818480021283004F0C0F826
:1013300015480021503004F0BBF8134800217830E4
:1013400004F0B6F89FED110A84ED020A85ED020A59
:1013500086ED020A87ED020A84ED090A84ED080A87
:1013600085ED090A85ED080A86ED090A86ED080A69
:1013700087ED090A87ED080A67E70000B80000203A
:10138000AC0000200000C0405851002000000000C8
:1013900072B6FEE778B50024009490F83C20012A4C
:1013A00019D0012280F83C200A6807230568092A21
:1013B00013D9EE680A3A02EB420293409E43EE6074
:1013C0000B788A680A3B03EB43039A400368DD68A5
:1013D0002A43DA6010E0022078BD2E6902EB420257
:1013E00093409E432E610B788A6803EB43039A4037
:1013F00003681D692A431A614A681F23072A13D20A
:1014000005686E6B521E02EB820293409E436E6330
:101410000B790A885B1E92B203EB83039A40036840
:101420005D6B2A435A6327E005680D2A12D22E6BA2
:10143000D21F02EB820293409E432E630B790A88EF
:10144000DB1F92B203EB83039A4003681D6B2A43B0
:101450001A6311E0EE6A0D3A02EB820293409E435A
:10146000EE620B790A880D3B92B203EB83039A403C
:101470000368DD6A2A43DA62164B0568144A9D4206
:1014800006D10D68122D03D1556845F480055560CD
:1014900005689D4218D10B68102B01D0112B13D178
:1014A000536843F400035360096810290CD10A49BA
:1014B0000A4A0968B1FBF2F101EB8101490000E041
:1014C000491E00910029FBD180F83C40002078BDE6
:1014D00000230140002001401000002040420F0086
:1014E00070477047704770B504004FF0000503D097
:1014F000206C002610B107E0012070BD204600F0EE
:101500001DF8666484F83C60206CC00610D4206C22
:1015100020F4885040F0020020642046FFF7B2FA21
:101520006664206C20F0020040F00100206400E0BE
:10153000012584F83C60284670BD000070B586B077
:10154000064614216846FEF7E9FE1D4930688842C8
:1015500034D11C480025016841F4807101600068A5
:1015600000F48070059017481438016841F00201BA
:1015700001600068694600F00200059001200090BB
:101580000320CDE90105104800F070FB104C0F4816
:10159000C4E900050015A560C4E90350400060617E
:1015A0008000A0614011C4E907052046656200F093
:1015B000A9FA08B1FFF7ECFEB463A66306B070BDEC
:1015C0000020014044380240000402401064024000
:1015D000780A0020F8B5044600200E46009094F8E2
:1015E0003C10012907D0012184F83C1021688B6848
:1015F000DB0702D011E00220F8BD8B6843F0010345
:101600008B604049404B0968B1FBF3F101EB4101AC
:1016100000E0491E00910029FBD121688B68DB05A1
:1016200003D58B6823F480738B6021688B68DB079C
:101630005DD0236C40F20165AB4343F480732364B7
:101640004968490505D5216C21F4005141F48051C8
:101650002164216CC90404D5616C21F00601616428
:1016600000E0606484F83C00A16B2948274DC86302
:10167000A16B28480864A16B2748C86421686FF0F3
:10168000220008602068416841F080614160206864
:10169000816841F4807181602168134632464C3183
:1016A000A06B00F099FA68681C49C006206806D053
:1016B000884224D1816811F0405F13D01FE0884236
:1016C000F8D0174A904203D1D1F80423D206F1D0C2
:1016D000144A904213D1D1F8041301F01F011029CC
:1016E000E8D30CE0816841F08041816007E0206C24
:1016F00040F010002064606C40F001006064002045
:10170000F8BD00001000002040420F0000230140FF
:10171000F5090008790A0008630A00080020014062
:10172000002101400022014070B5040003D094F86C
:10173000200010B104E0012070BD204600F082F8C6
:101740002068016841F00101016000F091FB05464D
:10175000052604E000F08CFB401B0A2811D8206805
:101760004068C007F6D02068016821F002010160DE
:1017700000F07EFB05460BE000F07AFB401B0A28D8
:1017800006D9606A40F40030606284F82060D2E7D5
:10179000206840688007EFD4207E01282068016817
:1017A0003DD021F080010160607E01282068016841
:1017B00038D021F040010160A07E01282068016836
:1017C00033D021F020010160E07E0128206801680B
:1017D0002ED041F010010160207F012820680168AF
:1017E00029D021F008010160607F0128206801688C
:1017F00024D021F004010160D4E902010843D4E9B6
:101800000412114308436168491E08432168C861F6
:1018100000206062012084F82000002070BD41F0AB
:101820008001C0E741F04001C5E741F02001CAE76F
:1018300021F01001CFE741F00801D4E741F00401A5
:10184000D9E7000010B586B0044614216846FEF7BB
:1018500065FD1349206888421FD1124800210268A3
:1018600042F000720260006800F0007005900D48C0
:101870001038026842F0080202600068022200F09C
:10188000080005900320CDE90210CDE900020920EF
:1018900004906946044800F0E9F906B010BD000064
:1018A0000064004040380240000C02402DE9F04145
:1018B0000446876D00F0DCFA064694F835000025F2
:1018C000022806D08020606584F834500120BDE8ED
:1018D000F0812068016821F01601016020684169EB
:1018E00021F080014161206C08B9A06C20B1206812
:1018F000016821F0080101602068016821F0010100
:1019000001600CE000F0B4FA801B052807D9202004
:101910006065032084F8350084F83450D7E72068E8
:101920000068C007EED194F85C103F208840B86092
:10193000012084F8350084F834500020C7E790F87F
:101940003510022903D0802141650120704705210F
:1019500080F835100068016821F001010160002065
:10196000704700002DE9F84304464FF00009CDF818
:10197000009063484FF41651A56D0068B0FBF1F775
:101980002E6894F85C10082000FA01F131420FD063
:1019900021680A6852070BD50A6822F004020A601F
:1019A00094F85C108840A860606D40F001006065AC
:1019B00094F85C104FF0010808FA01F0304208D0AA
:1019C00021684969090604D5A860606D40F00200ED
:1019D000606594F85C1004208840304208D021688B
:1019E0000968890704D5A860606D40F0040060654F
:1019F00094F85C1010208840304218D021680968A3
:101A0000090714D5A86020680168490304D5006857
:101A1000000308D5A16C07E00168C90503D401687B
:101A200021F008010160216C09B12046884794F833
:101A30005C1020208840304231D021680968C906F6
:101A40002DD5A86094F8350005282068016806D0D7
:101A5000490347D5006800031DD4616C1CE021F0E8
:101A6000160101602068416921F080014161206C0C
:101A700008B9A06C20B12068016821F0080101605C
:101A800094F85C103F208840A86084F8358084F882
:101A90003490216D1FE0E16B09B120468847606DED
:101AA00000282BD0606DC00714D0052084F83500C5
:101AB0002068016821F0010101600098401C00903D
:101AC000B84203D820680068C007F6D184F8358092
:101AD00084F83490E16C002910D001B02046BDE8B4
:101AE000F04308470168C905D5D4016821F0100109
:101AF000016084F8358084F83490CCE7BDE8F88341
:101B0000100000202DE9F041044600F0B1F906462E
:101B10005CB1022084F83500002584F83450206838
:101B2000016821F0010101600DE00120BDE8F081B4
:101B300000F09EF9801B052805D920206065032050
:101B400084F83500F2E720680068C007F0D1226809
:101B5000116820480140D4E901031843D4E9033651
:101B60003343184363691843A3691843E36918436F
:101B7000236A18430843616A042903D1D4E90B138B
:101B800019430843106020684069666A20F0070125
:101B900030460E43012704280CD1A06A0643E06AB0
:101BA00040B12046FFF700FB20B14020606584F87B
:101BB0003570BAE7206846612046FFF7E1FA94F8ED
:101BC0005C203F2191408160656584F8357000207C
:101BD000ACE700003F8010F02DE9F0410446866D2F
:101BE00090F83400002501280DD0012084F834003D
:101BF00094F835700020012F07D084F834000225B6
:101C00002846BDE8F0810220FBE7022784F8357002
:101C100060652046FFF7F2FA94F85C103F20884098
:101C2000B0602068016841F016010160206C20B1AD
:101C30002068016841F0080101602068016841F0F6
:101C400001010160DCE7000070B5044600F010F906
:101C50000546601C02D004480078044400F008F9EE
:101C6000401BA042FAD370BD040000202DE9F84FBC
:101C7000DFF8BCA10022012503264FF00F090AF16D
:101C8000040BAAF1040E00BF0B6805FA02F423400E
:101C9000A34270D10F7907F00307012F01D0022F63
:101CA00016D187684FEA420806FA08FC27EA0C07B3
:101CB000D1F80CC00CFA08FC4CEA070CC0F808C0BC
:101CC0004768A7430C79C4F3001494403C43446034
:101CD0000C79E443A4070AD0C4684FEA420C06FA20
:101CE0000CF7BC438F6807FA0CF72743C7600C79E1
:101CF00004F00304022C12D1D40800EB840CDCF8AD
:101D000020405707FF0E09FA07F824EA0804D1F823
:101D1000108008FA07F848EA0408CCF82080046824
:101D20004FEA420C06FA0CF7BC430F7907F00307A1
:101D300007FA0CF7274307604C6814F4403F70D053
:101D40003C4C276847F480472760246822F003074B
:101D500004F480440094384C07EB040CDCF8084889
:101D600097074FEA177809FA08F7BC43334FB84290
:101D700002D1002724E054E0314FB84201D10127BD
:101D80001EE0304FB84201D1022719E02E4FB84271
:101D900001D1032714E02D4FB84201D104270FE0F1
:101DA0002B4FB84201D105270AE02A4FB84201D192
:101DB000062705E0284FB84201D1072700E0082791
:101DC00007FA08F72743CCF80878DAF800405746B6
:101DD000D1F804C09C435FEACC2C00D51C433C6086
:101DE000DBF800405F46D1F804C09C435FEA8C2CCE
:101DF00000D51C433C60DEF800407746D1F804C0B3
:101E00009C435FEA8C3C00D51C433C60084F083F74
:101E10003C68D1F804C09C435FEACC3C00D51C432D
:101E20003C60521C102AFFF42FAFBDE8F88F000071
:101E3000083C0140443802400030014000000240AC
:101E40000004024000080240000C02400010024062
:101E50000014024000180240001C024000690840C3
:101E600000D0012070470AB1816170470904FBE787
:101E70000148806870470000040000200248816823
:101E80000278114481607047040000200B4810B5AF
:101E9000016841F400710160016841F480610160F2
:101EA000016841F480710160032000F09FF8052073
:101EB00000F006F800F050F8002010BD003C024091
:101EC00030B505461F4887B00024016841F4807191
:101ED0000160006806A900F48070009001A800F07D
:101EE00031F90498A8B100F04DF940001649174A9D
:101EF000B0FBF1F11648491E026040F2E732C0E93A
:101F00000324C0E90114846100F084FD040003D0BF
:101F100015E000F037F9E9E70D4800F0EFFD0400A7
:101F20000DD12D2000F034F8102D07D200222946C3
:101F30002D2000F03BF80748056000E0012407B0C1
:101F4000204630BD4038024040420F000020004093
:101F5000C8120020080000200C4882B0016841F43B
:101F600080410160006800F4804000900748001F35
:101F7000016841F0805101600068002200F080504B
:101F800000900F21901E02B000F010B844380240BB
:101F9000002809DB00F01F02012191404009800068
:101FA00000F1E020C0F8001170470000F0B40E4BC3
:101FB0001B680C46C3F30223C3F10705042D00D9A7
:101FC0000425191D072901D2002300E0DB1E01268C
:101FD00006FA05F1491E214099409E40761E1640A2
:101FE0003143F0BC04F0BCBC0CED00E0064900F04D
:101FF000070208684FF6FF03184040EA0220034A30
:1020000010430860704700000CED00E00000FA0586
:102010002DE9F0470E46050065D0DFF81481D8F8A9
:102020000000F7B200F00700B04207D288F8007055
:10203000D8F8000000F00700B04254D128683D4CA9
:10204000810712D5400703D5206840F4E050206096
:102050002878000703D5206840F46040206020689D
:10206000A96820F0F000084320602878C0072DD030
:10207000304968680839012812D0022813D0032893
:1020800011D00968890700292DDA216821F00301A0
:1020900001432160FFF7ECFE814641F2883A0EE0F1
:1020A00009688903EFE709688901ECE7FFF7E0FEBB
:1020B000A0EB0901514502D90320BDE8F087206853
:1020C000696800F00C00B0EB810FEFD1D8F8001078
:1020D000404601F00701B14207D90770006800F0DF
:1020E0000700B04201D00120E7E72878400705D576
:1020F0002068E96820F4E050084320602878000751
:1021000006D52068296920F4604040EAC1002060BB
:1021100000F058F82168084AC1F30311515CC84027
:102120000649086006480068FFF7CAFE0020C4E7B9
:10213000003C024008380240E094000810000020F3
:10214000080000200F2202600C4A136803F003030A
:102150004360136803F0F0038360136803F4E053F3
:10216000C36012684FF4E05303EAD20202610448EC
:10217000006800F00700086070470000083802405F
:10218000003C02400448054900680968044AC1F35C
:102190008221515CC840704710000020083802407E
:1021A000F09400080448054900680968044AC1F32E
:1021B0004231515CC840704710000020083802408E
:1021C000F0940008154810B5006810F00C0214488F
:1021D00013D04110042A0FD0082A0ED10F4C241F0F
:1021E0002268236802F03F025B0207D52068C0F333
:1021F0008810A0FB010106E0084610BD2168C1F36C
:102200008811A1FB00010023FEF73CF82168C1F30F
:102210000141491C4900B0FBF1F010BD08380240F3
:102220000024F4002DE9F84F04006ED02078DFF888
:102230004C93C007A9F104054AD009F104000168D4
:10224000C1F38101012908D00068C0F38100022890
:102250000AD1D9F80000400206D52868800337D596
:1022600060680028E1D033E06068B0F5803F10D0AE
:10227000B0F5A02F286810D020F48030286028689E
:1022800020F4802028606068A8B1FFF7F1FD0646C1
:102290000DE0286840F48030F4E740F480202860A6
:1022A000F7E700BFFFF7E4FD801B642873D82868B8
:1022B0008003F7D50CE0FFF7DBFD064605E000BF25
:1022C000FFF7D6FD801B6428F0D828688003F7D478
:1022D0002078DFF8AC8280074FF0000A3ED5A7488F
:1022E000001D016811F00C0F08D00068C0F38100D8
:1022F00002280BD1D9F80000400207D428688007D3
:1023000016D5E068012800D112E033E1E068B8B1E9
:102310000120C8F80000FFF7ABFD064605E000BF4E
:10232000FFF7A6FD801B0228C0D828688007F7D5D4
:102330002868216920F0F80040EAC10028600DE01B
:10234000C8F800A0FFF794FD064604E0FFF790FDF3
:10235000801B02281FD828688007F7D42078000740
:1023600022D5864F87486169703771B101210160BC
:10237000FFF77EFD064604E0FFF77AFD801B02288A
:1023800009D838688007F7D50EE0C0F800A0FFF73D
:102390006FFD064605E082E0FFF76AFD801B02281C
:1023A0007DD838688007F7D42078400768D5DFF8F3
:1023B000CCB100270BF13C0BDBF80000C0000BD4C4
:1023C000DBF8001041F08051CBF80010DBF8000082
:1023D000012700F0805000906B4E3068C00510D48B
:1023E000306840F480703060FFF742FD009005E0F7
:1023F000FFF73EFD0099401A022850D83068C0050A
:10240000F6D55E4EA0686C3601280FD005283068DE
:1024100010D020F001003060306820F004003060FF
:10242000A068B8B1FFF724FD00900FE0306840F0DD
:102430000100F4E740F004003060F7E7FFF718FD13
:102440000099411A41F28830814266D8306880078D
:10245000F4D50EE0FFF70CFD009007E0FFF708FD54
:102460000099411A41F28830814256D8306880077D
:10247000F4D42FB1DBF8001021F08051CBF800101C
:10248000A069C8B33D49091D0968C1F3810102294A
:102490004AD00228504607D0C8F8600000E03CE06F
:1024A000FFF7E6FC04463BE04746C8F86000FFF74C
:1024B000DFFC064605E000BFFFF7DAFC801B0228C0
:1024C0002BD828688001F7D4D4E907010843A16A12
:1024D0002E4A490802EB0141626A41EA821108432F
:1024E00094F82C1040EA0161C9F800100120386608
:1024F000FFF7BEFC044606E03EE000BFFFF7B8FC75
:10250000001B022809D828688001F7D534E000BFF5
:10251000FFF7AEFC001B022802D90320BDE8F88FAC
:1025200028688001F4D427E00128F7D0D9F800000A
:10253000E26900F4800191421CD1226A00F03F015F
:10254000914217D147F6C071626A0140B1EB821F18
:1025500010D1A26A4FF0FF3300F4403103EB520276
:10256000B1EB024F06D194F82C1000F07060B0EB84
:10257000016F01D00120D1E70020CFE704380240ED
:1025800000004742800E4742007000400000FFFFFD
:102590007047000038B5016804464A688868C0433F
:1025A000430606D5C30704D1D3435B0601D4216C8F
:1025B00005E0830708D4D3431B0605D4616C01B042
:1025C0002046BDE830400847830603D5430601D5C1
:1025D000C30551D4D3439B064ED443060AD494F882
:1025E0005130032B49D0636D43F004036365CB681E
:1025F0008B680093830609D4636D43F00103636520
:102600008B6800930B6823F040030B60C00506D471
:10261000606D40F008006065206880680090606D23
:10262000002829D02068416821F0E00141600120A4
:1026300084F85100900701D4D00722D02068416867
:1026400021F003014160114DE06C40B10565E06C83
:10265000FFF775F918B1606D40F040006065A06C3F
:10266000002809D00565A06CFFF769F9002803D0A0
:10267000606D40F04000606538BDC86888680090B3
:1026800038BD2046FFF784FF38BD0000855900089B
:1026900070B5040009D0606A002540B1256165610C
:1026A000A56294F8510040B10CE0012070BD606853
:1026B000B0F5827FF4D0E561F2E784F8505020460F
:1026C00000F044F8022084F851002068016821F0ED
:1026D00040010160A088218900F4827001F4044166
:1026E0000843A18901F400610843217C01F0020143
:1026F0000843217D01F001010843218B01F40071A1
:102700000843217F01F03801084394F8201001F0BC
:1027100080010843218D01F40051084321680860BD
:10272000A069042101EA104094F8241001F010017E
:102730000843216848602068C16921F40061C161D3
:102740006565012084F85100002070BD10B586B089
:10275000044614216846FDF7E1FD174920688842C8
:1027600028D116480021026842F4805202600068B5
:1027700000F48050059011481438026842F00102BC
:102780000260006800F001000590E0200090022047
:10279000CDE9010103200390052004906946084813
:1027A000FFF764FA002205212320FFF7FFFB232017
:1027B000FFF7EEFB06B010BD003001404438024088
:1027C000000002402DE9F84F044690F85000002721
:1027D0001D461646894601280DD04FF0010B84F89E
:1027E00050B0FFF745FB804694F85100BA460128E7
:1027F00004D0022793E00220BDE8F88FB9F1000F62
:1028000073D0002E71D0032084F85100C4F854A076
:10281000C4F83090A686E686C4F838A0A4F83CA098
:10282000A4F83EA0C4F844A0C4F840A0A068B0F545
:10283000004F09D12068016821F040010160206843
:10284000016841F48041016020680168490603D4B1
:10285000016841F040010160E068B0F5006F606818
:1028600003D030B3012E24D041E008B1012E1CD199
:10287000206B21680088C86006E0206881688907AD
:1028800009D5216B0988C160206B801C2063E08E14
:10289000401EE08609E0FFF7EBFAA0EB0800A84233
:1028A00002D3681C01D031E07DB3E08E0028E4D172
:1028B00020E0206B21680078087306E020688168BA
:1028C000890709D5216B09780173206B401C2063AF
:1028D000E08E401EE0860AE0FFF7CAFAA0EB08008F
:1028E000A84203D3681C02D010E017E06DB1E08E5F
:1028F0000028E3D142462946204603F04BF808B1B0
:1029000020206065A06818B106E0FFE7032706E015
:102910002068C16880680090606D00B1012784F86C
:1029200051B084F850A0384666E77047704710B53C
:1029300090F83C20012A22D0012280F83C20CA686D
:102940008C6822F4407222434C6822F48062224355
:102950000C6822F4006222430C6922F48052224364
:102960004C6922F400522243C969002322F48042B8
:102970000A4301684A6480F83C30002010BD022000
:1029800010BD000070B590F83C20012A32D001241F
:1029900080F83C40022280F83D2003685A689D6818
:1029A00022F070060A6832435A60134B02689A425A
:1029B00014D0B2F1804F11D0104B9A420ED0104B70
:1029C0009A420BD00F4B9A4208D00F4B9A4205D037
:1029D0000E4B9A4202D00E4B9A4204D1496825F020
:1029E00080031943916080F83D40002180F83C103D
:1029F000084670BD022070BD000001400004004088
:102A000000080040000C004000040140004001406C
:102A10000018004010B5040003D094F83D0010B138
:102A200007E0012010BD002084F83C00204600F0A3
:102A30001FF8022084F83D00211D206803F09AFB56
:102A4000012084F8460084F83E0084F83F0084F8B2
:102A5000400084F8410084F8420084F8430084F880
:102A6000440084F8450084F83D00002010BD0000BB
:102A700008B51D4A01681D48914207D1016841F01F
:102A800010010160006800F0100020E0184A914237
:102A900011D1016841F0200101600068002200F0BE
:102AA0002000009005213720FFF780FABDE808409C
:102AB0003720FFF76DBA0D480E4A001D914208D12C
:102AC000016841F400310160006800F400300090BA
:102AD00008BD094A9142FBD1016841F4802101609F
:102AE000006800F48020F2E7001000404038024007
:102AF00000140040004401400048014090F83D109F
:102B0000012901D001207047022180F83D100168A1
:102B1000CA6842F00102CA6000681149884214D0B4
:102B2000B0F1804F11D00F4988420ED00E49884233
:102B30000BD00E49884208D00D49884205D00D4976
:102B4000884202D00C49884204D1816801F0070113
:102B5000062903D0016841F001010160002070479F
:102B6000000001400004004000080040000C00404C
:102B70000004014000400140001800402DE9F041F0
:102B80000D46040003D094F83D0018B108E0012080
:102B9000BDE8F081002084F83C00204600F040F8B9
:102BA000022084F83D002068816844F207029143C6
:102BB0008160211D206803F0DDFA22689068916928
:102BC000166A2B68AF69034340F20330814341EA40
:102BD0000721A868EF6908434FF6FC418843E9687C
:102BE00040EA0720014328692F6A000140EA0730C4
:102BF000084369686D6926F0AA0646EA0515294367
:102C000093602268906154F8460B0162012004F839
:102C10001F09E0752076E0762077A0750020B7E7E1
:102C2000F0B587B0044614216846FDF777FB584994
:102C300023680024564810390225564A564EB3F1EF
:102C4000804F27D0554FBB4259D1026842F0020253
:102C50000260006800F002000590086840F0020081
:102C600008600868694600F0020005903020009076
:102C7000CDE901543046CDE90345FEF7F7FF0022C8
:102C800005211D20FFF792F95FF01D00FFF780F985
:102C900007B0F0BD036843F001030360006800F073
:102CA00001000590086840F001000860086800F025
:102CB00001000590086840F00200086008680127DC
:102CC00000F0020005904FF400400090CDE901545F
:102CD000CDE9034769461046FEF7C8FF082000907B
:102CE000CDE90154CDE9034769463046FEF7BEFF02
:102CF000002205211C20FFF759F91C20C6E7284FA8
:102D0000BB4220D1026842F004020260006800F079
:102D100004000590086840F00200086008686946F1
:102D200000F002000590C0200090CDE9015430462B
:102D3000CDE90345FEF79AFF002205211E20FFF78B
:102D400035F91E20A2E7174EB342A1D1036843F024
:102D500008030360006800F008000590086840F070
:102D6000010008600868694600F001000590032032
:102D70000090CDE901541046CDE90345FEF776FFFA
:102D8000002205213220FFF711F932207EE70000F2
:102D900040380240000002400004024000040040AD
:102DA00000080040000C004070B590F83E600446FA
:102DB00090F83F5090F8423090F84320022021B123
:102DC00004290ED0012E1BD114E0012E18D1012BA5
:102DD00016D184F83E0084F84200012200212068C8
:102DE00020E0012D0CD1012A0AD184F83F0084F89B
:102DF000430014E0012D03D1012B01D1012A01D0A0
:102E0000012070BD84F83E0084F83F0084F8420041
:102E100084F8430001220021206803F00FFA012208
:102E20000421206803F00AFA2068016841F00101DA
:102E30000160002070BD704770B5044600680169EC
:102E40004FF00005C943890715D4C168C9438907F4
:102E500011D4E91E01610120207720688069800774
:102E6000204602D0FFF7E7FF04E000F025F92046F6
:102E700000F0FCF9257720680169C943490717D498
:102E8000C168C943490713D46FF0040101610220EE
:102E900020772068806910F4407F204602D0FFF739
:102EA000CAFF04E000F008F9204600F0DFF92577BA
:102EB00020680169C943090716D4C168C9430907D5
:102EC00012D46FF008010161042020772068C069E6
:102ED0008007204602D0FFF7AEFF04E000F0ECF8D8
:102EE000204600F0C3F9257720680169C943C90667
:102EF00017D4C168C943C90613D46FF0100101612A
:102F0000082020772068C06910F4407F204602D056
:102F1000FFF791FF04E000F0CFF8204600F0A6F99B
:102F2000257720680169C943C90708D1C168C94329
:102F3000C90704D1891E0161204600F0FDF920680F
:102F40000169C943090609D4C168C943090605D402
:102F50006FF0800101612046FFF7E7FC20680169FE
:102F6000C943490609D4C168C943490605D46FF06D
:102F700040010161204600F0E9F920680169C94378
:102F800089060BD4C168C943890607D46FF02001B4
:102F900001612046BDE87040FFF7C8BC70BD00006D
:102FA00070B586B0044614216846FDF7B7F9384D70
:102FB00023680022374902243748AB420ED10B6800
:102FC00043F010030B60096801F0100105914FF404
:102FD000D4410091CDE90142012155E02F4E032556
:102FE000B34213D1086840F00400086008686946DD
:102FF00000F0040005904FF470700090CDE901429C
:1030000027482EE0FEF732FE06B070BD254EB342D3
:1030100009D10B6843F010030B60096801F010013F
:103020000591602119E0204E2048B34209D10B6878
:1030300043F002030B60096801F00201059181155C
:103040000BE01B4EB3420FD10B6843F002030B6041
:10305000096801F00201059171150091CDE9014265
:103060006946CDE90325CDE7124DAB42CCD10B68C3
:1030700043F002030B60096801F002010591E900C9
:103080000091CDE901420921CDE903216946B9E763
:1030900000000140303802400010024000040140AE
:1030A000000802400040014000440140000402408A
:1030B0000048014000180040704770B5044690F881
:1030C0003C0000260D4601280FD0012084F83C006A
:1030D0006AB1042A1DD0082A2FD00C2A3FD001261D
:1030E000002084F83C00304670BD022070BD20688E
:1030F00003F0B2F82068816941F00801816120681D
:10310000816921F004018161206881692A69114384
:1031100011E0206803F0D0F82068816941F4006173
:1031200081612068816921F4806181612068816901
:103130002A6941EA02218161D2E7206803F0F2F8AE
:103140002068C16941F00801C1612068C16921F0AE
:103150000401C1612068C1692A69114311E0206836
:1031600003F014F92068C16941F40061C16120686D
:10317000C16921F48061C1612068C1692A6941EA9D
:103180000221C161ACE710B5040003D094F83D0002
:1031900010B107E0012010BD002084F83C0020465B
:1031A00000F01EF8022084F83D00211D206802F086
:1031B000E1FF012084F8460084F83E0084F83F00D7
:1031C00084F8400084F8410084F8420084F8430009
:1031D00084F8440084F8450084F83D00002010BDC8
:1031E00008B51D4A01681D48914207D1016841F0A8
:1031F00001010160006800F001001EE0184A9142E0
:1032000011D1016841F0020101600068002200F064
:103210000200009005212D20FEF7C8FEBDE8084001
:103220002D20FEF7B5BE0F4A914208D1016841F446
:1032300080310160006800F48030009008BD0A48C9
:103240008142FBD10548001F016841F04001016047
:10325000006800F04000F0E7000001404438024000
:103260000004014000400140001800407047000089
:1032700010B50446022249B104290ED0082913D002
:1032800094F84100012816D0012010BD94F83E00AA
:103290000128F9D184F83E200FE094F83F0001287E
:1032A000F2D184F83F2008E094F840000128EBD1E7
:1032B00084F8402001E084F841200122206802F0D7
:1032C000BDFF16492068164A884201D0904203D1BA
:1032D000436C43F4004343642068884213D0B0F148
:1032E000804F10D00F4988420DD00F4988420AD034
:1032F0000E49884207D0904205D00D49884202D03D
:103300000C49884204D1816801F00701062903D0E5
:10331000016841F001010160002010BD0000014082
:10332000000401400004004000080040000C004080
:10333000004001400018004000680349884201D164
:10334000FEF79CBD7047000000200040704738B574
:10335000044690F83E00202822D181B17AB194F839
:103360003C0001281CD0012084F83C00206320464A
:1033700003F0F6F9002803D1216B012901D00120C7
:1033800038BD21680A684968009121680C3151E80C
:10339000002F42F0100241E80023002BF5D138BD88
:1033A000022038BD10B50C4600680E49884203D192
:1033B000C8220D490D480FE00D49884210D1204622
:1033C00002F002F908492246C839084800F08CFB8F
:1033D0000549C8220748C839BDE81040FFF7B7BF04
:1033E00010BD000000480040D8010020840F0020DC
:1033F00000100140FC0E002070470000F8B5016885
:1034000004460868CA684B6910F00F0F4FF00005BA
:1034100059D003F0010602F49077374365D0C10715
:1034200005D0D10503D5216C41F00101216441078C
:1034300005D5D90703D0216C41F002012164810731
:1034400005D5D90703D0216C41F00401216401079F
:1034500007D502F02001314303D0216C41F008016F
:103460002164216C00293AD0800604D5900602D54B
:10347000204603F08FF820684069216CC0F380106B
:10348000090700D460B3204603F04FF82068406974
:10349000400621D52068143050E8001F21F040017B
:1034A00040E80012002AF5D1A06BA8B16C49016573
:1034B000A06BFEF744FA002811D0A06B016D01B09B
:1034C000BDE8F040084783060FD593060DD520468A
:1034D000BDE8F84003F05EB82046FFF78DFFF8BD69
:1034E0002046FFF789FF2564F8BD266B2023012EB7
:1034F00079D1C60677D5D60675D508684868009094
:103500004869400640D5A16B086840680004000C7B
:10351000EAD0A28D8242E7D9E085C869B0F5807F04
:103520002DD020680C3050E8001F21F4807140E855
:103530000012002AF5D12068143050E8001F21F055
:10354000010140E80012002AF5D12068143050E84B
:10355000001F21F0400140E80012002AF5D184F854
:103560003E30256320680C3050E8001F21F0100128
:1035700040E80012002AF5D1A06BFEF797F9A08D64
:10358000E18D401A81B229E0A08DE18D401A81B20F
:10359000E08D0028A8D00029A6D020680C3050E883
:1035A000002F22F4907240E80026002EF5D120680A
:1035B000143050E8002F22F0010240E80026002ECF
:1035C000F5D184F83E30256320680C3050E8002F98
:1035D00022F0100240E80023002BF5D12046FFF72F
:1035E000E1FEF8BDFFE705062BD5150629D594F8B1
:1035F0003D002128F5D1A068B0F5805F01D1206998
:10360000B0B1206A411C2162216800784860E08CDA
:10361000401E0004000CE084E3D12068C16821F062
:103620008001C1602068C16841F04001C160D8E7F5
:10363000206A0088C0F308004860206A801C20626D
:10364000E5E74006CDD55006CBD5CA68204622F026
:103650004002CA6084F83D3000F08CFAC1E70000F7
:10366000E963000870B5040004D094F83D0000251B
:1036700010B106E0012070BD84F83C50204600F0F7
:1036800023F8242084F83D002068C16821F400510B
:10369000C160204602F0DEFF2068016921F49041FC
:1036A00001612068416921F02A0141612068C168F7
:1036B00041F40051C1602564202084F83D0084F865
:1036C0003E00002070BD00002DE9F04F87B0044699
:1036D00014216846FCF722FEC948DFF82083103821
:1036E00002212768C64B03228D0606154FF04009BC
:1036F0004FF0000C474559D1E0466746D3F800C06B
:103700004CF4002CC3F800C01B6803F4002305939D
:10371000036843F004030360006800F004000590B0
:1037200090028DE883000820CDE903206946B54862
:10373000FEF79CFADFF8D4A2B34950468AE8A2000B
:10374000C0E90376CAF81470CAF81870CAF81C7079
:10375000CAF82070CAF82470FEF7D4F908B1FDF752
:1037600017FEAA4FA848C4F838A060373030CAF80E
:10377000384087E82102C7E90386C7F81480C7F8F4
:103780001880C7F81C80C7F820803846C7F8248006
:10379000FEF7B8F908B1FDF7FBFD676300220521CC
:1037A0003420BC63FEF702FC342061E0DFF8608265
:1037B0004FF0070A474560D1914BE0461B1D674615
:1037C000D3F800C04CF0100CC3F800C01B6803F025
:1037D00010030593036843F001030360006800F0E1
:1037E000010005904FF4C0608DE88300CDE9032A05
:1037F00069468848FEF73AFADFF810A286490AF1CE
:10380000C00A50468AE8A200C0E90376CAF81470DC
:10381000CAF81870CAF81C70CAF82070CAF8247068
:10382000FEF770F908B1FDF7B3FD7B487B4FC4F894
:1038300038A07830CAF8384087E82102C7E9038603
:10384000C7F81480C7F81880C7F81C80C7F8208014
:103850003846C7F82480FEF755F908B1FDF798FD02
:103860006763002205212520BC63FEF79FFB25200E
:10387000FEF78EFB07B0BDE8F08FDFF8A481DFF81C
:10388000A4B147455BD1E0466746D3F800C04CF48D
:10389000003CC3F800C01B6803F4003305930368C1
:1038A00043F008030360006800F008000590602002
:1038B0008DE88300CDE9032A69465846FEF7D6F91C
:1038C000DFF858A150490AF1600A48318AE8A2009D
:1038D0005046C0E90376CAF81470CAF81870CAF8DE
:1038E0001C70CAF82070CAF82470FEF70BF908B1F2
:1038F000FDF74EFD494F4448C4F838A0C03760304A
:10390000CAF8384087E82102C7E90386C7F814805F
:10391000C7F81880C7F81C80C7F820803846C7F859
:103920002480FEF7EFF808B1FDF732FD676300224F
:1039300005212620BC63FEF739FB262098E7DFF837
:10394000E880474596D1E0466746D3F800C04CF47E
:10395000802CC3F800C01B6803F480230593036820
:1039600043F008030360006800F0080005904FF47E
:1039700040708DE88300CDE9032A69465846FEF77A
:1039800075F9DFF8A8A02049504618398AE8A20046
:10399000C0E90376CAF81470CAF81870CAF81C7027
:1039A000CAF82070CAF82470FEF7ACF808B1FDF729
:1039B000EFFC1E4F1448C4F838A060371830CAF81E
:1039C000384087E82102C7E90386C7F81480C7F8A2
:1039D0001880C7F81C80C7F820803846C7F82480B4
:1039E000FEF790F808B1FDF7D3FC676300220521CC
:1039F0002720BC63FEF7DAFA272039E7004C0040A5
:103A0000403802400008024040600240C80F0020D9
:103A1000001001400000024040640240E810002015
:103A200000440040000C0240004800400812002002
:103A3000704770472DE9F843044690F83D001F4653
:103A400016460D4620284CD1C5B1BEB194F83C00B5
:103A5000012846D0012084F83C004FF00008C4F84B
:103A60004080212084F83D00FEF702FAA6848146BA
:103A7000E684A068B0F5805F03D004E00120BDE8D3
:103A8000F883206928B12E465FF0000584F83C8059
:103A90000EE00026FAE78021204602F0ABFEA0B936
:103AA000AEB116F8010B21684860E08C401EE0843E
:103AB000E08C4B464FF0000200970028EBD14FF00E
:103AC0004001204602F096FE30B10320D7E735F8DA
:103AD000020BC0F30800E6E7202084F83D00002038
:103AE000CDE70220CBE7000070B5044690F83D001A
:103AF000202836D191B38AB394F83C00012830D005
:103B0000012084F83C002162A284E284002525641F
:103B1000212084F83D00636B1348D863636B13481E
:103B20001864636B1248D864606B13460565266899
:103B3000606B321DFEF750F821686FF0400008609E
:103B400084F83C502068143050E8001F41F0800198
:103B500040E80012002AF5D1002070BDFFE70120E7
:103B6000FBE70220F9E70000DF6400082165000898
:103B7000F963000870477047FEE7000000B585B0A4
:103B800014216846FCF7CAFB4FF440600090012006
:103B9000019002900220039069460248FEF766F801
:103BA00005B000BD00040240FF20401EFDD270475A
:103BB00070B50C4D4FF40064002221462846FEF7F4
:103BC00052F9012291022846FEF74DF9FFF7ECFF6A
:103BD000012221462846FEF746F9BDE87040FFF76E
:103BE000E3BF0000000402402DE9F04781460024B5
:103BF00001F092FE0122154ED70239463046FEF7FB
:103C000032F90025B84637156006040E0122394600
:103C10003046FEF728F9FFF7C7FF41463046FEF76A
:103C20001DF908B1641CE4B2002239463046FEF7A3
:103C30001AF901F089FEFFF7B7FF6D1C082DE3DBD1
:103C4000484600F06FF82046BDE8F08700040240C7
:103C50002DE9F041124F002405464FF400683E154F
:103C6000280601D5012200E0002241463846FEF731
:103C7000FAF8FFF799FF012231463846FEF7F3F8CC
:103C8000FFF792FF002231463846FEF7ECF868064F
:103C9000050E641C082CE3DBBDE8F04100F022B8FF
:103CA0000004024070B501220D4DD4022146284681
:103CB000FEF7D9F80122960231462846FEF7D3F8DE
:103CC000FFF772FF002221462846FEF7CCF8FFF7E7
:103CD0006BFF31462846BDE870400022FEF7C3B8AE
:103CE0000004024070B501220D4DD4022146284641
:103CF000FEF7B9F8FFF758FF012296023146284631
:103D0000FEF7B1F8FFF750FF21462846FEF7A6F868
:103D10000446002231462846FEF7A5F8204670BD2D
:103D20000004024070B50E4C4FF40061012814D01D
:103D300000222046FEF797F8FFF736FF0122950292
:103D400029462046FEF78FF8FFF72EFF294620462A
:103D5000BDE870400022FEF786B80122E9E70000C6
:103D60000004024000F00CFC4FF4FA7003F00CFF6A
:103D700005F072F9494CDFF828B104F1180A0BF18B
:103D80001809A06045480A21083004F017FD00F02A
:103D9000C5FB424D6080207805F10C05002805F137
:103DA000040205F1020128462FD000F085FB56469B
:103DB000321D911E05F10C0000F097FB2988BBF81D
:103DC0000020BBF808008B1AA91D6A88AD88BBF8D3
:103DD0000470281A00F580408880D21B3588B9F815
:103DE0000070B9F80800A5EB070C7788B68801F1D8
:103DF0000C05B9F80480301AA8800B804A80A7EB24
:103E00000807A5F800C06F80BCE700F055FB5646D8
:103E10002248321D911E183000F067FB2048B5F98A
:103E200000200C3801680A440260B5F9023041688C
:103E300019444160B5F9045083682B4483601830FD
:103E4000B6F9007005682F440760B6F902C04568EE
:103E500065444560B6F90460D0F808C066448660E1
:103E60006068401C6060B0F5FA7F8BD192FBF0FC7B
:103E700091FBF0F1CBE900C193FBF0F197FBF0F27D
:103E8000CBF80810C9F8002095FBF0F296FBF0F093
:103E9000C9E901200120207074E70000C80000205B
:103EA0004852002030EEC00A44F23C1280ED080A6D
:103EB000D0ED090AB0F91A1030EE601A00EE901A2F
:103EC000B0F91C10F8EEE00A61EE200A01EE101ABB
:103ED000B0F91810B8EEC11A41EE000A01EE101A3E
:103EE000B8EEC11A70EE810AFDEEE00A10EE901AEB
:103EF00009B20183914202DC5242914200DA02830C
:103F000080ED090A7047000010B5084C01212046D9
:103F1000FDF7A4FF30B102212046FDF79FFF18B145
:103F2000002010BD022010BD012010BD0010024075
:103F30002DED028B012212491248FDF74BFB104C6C
:103F40009FED118ADFED118A241F00BFFFF7DCFF10
:103F50002070617820EA01024140E2708143A17043
:103F60006070A08800EE100A3220B8EE400A20EE01
:103F7000080A20EE280A84ED020A03F005FEE5E7B0
:103F8000A8000020300A0020000004420000803910
:103F90002DE9F04104461D4616460F462A2000F042
:103FA0005FFA204600F052FA304600F04FFA2B201C
:103FB00000F056FA384600F049FA284600F046FA72
:103FC000BDE8F0412C2000F04BBA00002DE9FF5F66
:103FD000814618488B4600EB4217002509F1100A6C
:103FE0004FF001080BEB050000F110018BB281B21C
:103FF0001FFA8AF21FFA89F0FFF7CAFF0026002491
:10400000397808FA04F0014201D0039800E00E98D4
:1040100000F01CFA641CE4B2082CF1D3761CF6B252
:104020007F1C022EEBD36D1CEDB2102DDAD3BDE850
:10403000FF9F0000F894000810B514460B46024696
:10404000FFF7A6FF2046BDE8104000F0FFB90000D2
:1040500010B57B4C002204212046FDF704FF6420AC
:1040600003F0EBFC012204212046FDF7FCFE642056
:1040700003F0E3FC642003F0E0FC112000F0F0F911
:10408000782003F0DAFCB12000F0EAF9052000F016
:10409000FBF93C2000F0F8F93C2000F0F5F9B220E3
:1040A00000F0DEF9052000F0EFF93C2000F0ECF91B
:1040B0003C2000F0E9F9B32000F0D2F9052000F02F
:1040C000E3F93C2000F0E0F93C2000F0DDF90520A8
:1040D00000F0DAF93C2000F0D7F93C2000F0D4F9E8
:1040E000B42000F0BDF9032000F0CEF9C02000F0AC
:1040F000B7F9282000F0C8F9082000F0C5F904201D
:1041000000F0C2F9C12000F0ABF9C02000F0BCF90A
:10411000C22000F0A5F90D2000F0B6F9002000F053
:10412000B3F9C32000F09CF98D2000F0ADF92A20EE
:1041300000F0AAF9C42000F093F98D2000F0A4F952
:10414000EE2000F0A1F9C52000F08AF91A2000F055
:104150009BF9362000F084F9C02000F095F9E020AA
:1041600000F07EF9042000F08FF9222000F08CF995
:10417000072000F089F90A2000F086F92E2000F0CF
:1041800083F9302000F080F9252000F07DF92A2005
:1041900000F07AF9282000F077F9262000F074F971
:1041A0002E2000F071F93A2000F06EF9002000F0A6
:1041B0006BF9012000F068F9032000F065F9132085
:1041C00000F062F9E12000F04BF9042000F05CF906
:1041D000162000F059F9062000F056F90D2000F0E5
:1041E00053F92D2000F050F9262000F04DF923203E
:1041F00000F04AF9272000F047F9272000F044F9A1
:10420000252000F041F92D2000F03EF93B2000F080
:104210003BF9002000F038F9012000F035F90420C6
:1042200000F032F9132000F02FF93A2000F018F9CD
:10423000052000F029F9BDE81040292000F010B950
:10424000000002402DE9FF4F81B00446DDF83C90AC
:1042500000904FEA59074FF00008780700D001207E
:1042600000EBD70000FB09FB203AD0B20390029884
:1042700002994844401E83B2E019401E82B2204693
:10428000FFF786FE002553E0B9F10C0F2AD0B9F1F3
:10429000100F2ED0B9F1180F2ED0B9F1200F49D13F
:1042A0002749039801EB8010002610F805A010980C
:1042B00000284FF0010000FA06F000EA0A0022D0C0
:1042C00020B12046049A0299FFF7B6FE641C0098BC
:1042D000A4B2201AB84225D10298009C401C80B29A
:1042E000029023E00398174900EB400001EB8000A7
:1042F000DAE71549039803E00398144900EB4000FE
:1043000001EB0010D0E708B1049800E00E9800F02F
:104310009DF808F10100C0B2B0FBF7F1804607FB41
:10432000118050B1761CF6B2082EC0D36D1CADB210
:104330005D45A9D305B0BDE8F08F4FF00008F5E763
:104340006CB2000838960008AC9A00089CA00008DF
:104350002DE9FE4F9946DDE90D6714468A4605466C
:10436000DDF830800CE0CDF800804B465146284601
:10437000CDE90167FFF766FF05EB560085B2641CC7
:104380002278002AEFD1BDE8FE8F00000EB5FFF7BE
:104390005FFE0024DFF88C90DFF88CA047F67C5796
:1043A00010254FF6E07B4FF47A784FF6FF76002227
:1043B0003B4611460A200094FFF708FE3B460122C7
:1043C00000211C200094FFF701FECDE900455B466B
:1043D00016A200212E200294FFF7BAFFD9F8001090
:1043E0001748B1FBF8F214A102F08EFACDE90045AE
:1043F0003346134A902100200294FFF7A9FF9AF850
:10440000002010A10E4802F07FFACDE900453346A6
:104410000B4A902150200294FFF79AFF322003F0BC
:10442000B3FBC4E70C000020B000002056312E3052
:104430002052544F5300000054494D453A25640022
:1044400030510020504147453A25640010B50446DC
:10445000000A00F019F8E0B2BDE8104000F014B80E
:1044600070B5084C0546002208212046FDF7FBFCEC
:10447000284600F009F82046BDE8704001220821D6
:10448000FDF7F1BC0000024031B5094C00221021BB
:104490002046FDF7E8FC4FF47A730122694605488F
:1044A000FEF790F9012210212046FDF7DCFC38BD13
:1044B00000000240000B00207CB514460D46064665
:1044C0006B4606223B21682000F0A6F800280BD19D
:1044D000BDF8001049BA3180BDF8021049BA2980F0
:1044E000BDF8041049BA21807CBD7CB514460D4648
:1044F00006466B4606224321682000F08DF800280E
:104500000BD1BDF8001049BA3180BDF8021049BA8C
:104510002980BDF8041049BA21807CBD08B56B46DE
:1045200002224121682000F077F8BDF8000040BA6F
:1045300000B2FCF786F89FED0D1B53EC112BFCF736
:1045400011F89FED0C1B53EC112BFBF7F2FEFCF75F
:10455000DBF800EE100ADFED090A20EE200ABDEEBE
:10456000C00A10EE100A00B208BD000000000000F2
:1045700000407540A4703D0AD74342400000C84245
:1045800010B5FFF7FBFA80216B2000F0A9F864203A
:10459000FDF75AFB00216B2000F0A2F8012000F08B
:1045A0006BF8002000F063F80021382000F098F844
:1045B00000216A2000F094F80021232000F090F8F8
:1045C0008021372000F08CF8752000F00DF80121D3
:1045D0006B2000F085F800216C2000F081F8C820E5
:1045E00000F067F8002010BD10B50446FFF75AFB35
:1045F000D020FFF72DFB2046FFF72AFBFFF752FBE9
:10460000D120FFF725FB0120FFF7EEFA0446FFF764
:10461000CFFA204610BD00002DE9F0411D4614469A
:104620000F460646FFF73EFB7006000EFFF710FB35
:104630003846FFF70DFBFFF735FB012000EB460086
:10464000C0B2FFF705FB09E0012C0ED05FF00000BF
:10465000FFF7CAFA641E05F8010BE4B2002CF3D18F
:10466000FFF7A6FA0020BDE8F0810120F0E7C006C0
:10467000010E1C2000F034B8C006010E1B2000F013
:104680002FB8BC2801D3012110E0622801D30221F8
:104690000CE02A2801D3032108E0142801D30421C7
:1046A00004E00A2801D3052100E006211A2000F0C9
:1046B00017B810B504464FF47A70844201D9044605
:1046C00002E0042C00D20424B0FBF4F0401EC1B27E
:1046D000192000F005F86008BDE81040FFF7D1BFD1
:1046E00070B50D460446FFF7DDFAD020FFF7B0FAAB
:1046F0002046FFF7ADFA2846FFF7AAFAFFF758FA67
:10470000002070BD1FB50021164800910191029153
:10471000134A039102604FF48032C0E90121012461
:104720000161047680F820100F4AC0E90A21C461B3
:10473000C16080F830404461FCF7D5FE08B1FCF759
:1047400027FE0820CDE900040420029069460548B0
:10475000FCF720FE002801D0FCF71AFE1FBD000068
:1047600000200140300A00200100000F0D4810B564
:104770000B4901601021416000218160C16001612D
:104780004161017641768176C17601774177FCF708
:10479000CBFF002803D0BDE81040FCF7F9BD10BDE9
:1047A00000640040D80A00201D4808B5016841F4A3
:1047B00080010160016801F480010091016841F409
:1047C000001101600068002200F400100090052133
:1047D0000E20FDF7EBFB0E20FDF7DAFB0022052192
:1047E0000F20FDF7E3FB0F20FDF7D2FB0022052190
:1047F0001120FDF7DBFB1120FDF7CAFB002205218C
:104800003820FDF7D3FB3820FDF7C2FB002205213D
:104810004620FDF7CBFBBDE808404620FDF7B8BBBE
:10482000303802402DE9F04FC7B066A002F05CF8C6
:104830006BA002F059F86DA002F056F86FA002F0DC
:1048400053F81C2271496846FBF74DFD002168466C
:1048500003F0A6F96E491C2208606C4907A81C31B8
:10486000FBF741FD002107A803F09AF9694C67495D
:104870001C22206038310EA8FBF735FD00210EA860
:1048800003F08EF9644D61491C222860543115A84B
:10489000FBF729FD002115A803F082F95F4E5B4963
:1048A0001C22306070311CA8FBF71DFD00211CA8E4
:1048B00003F076F95A4F55491C2238608C3123A8F1
:1048C000FBF711FD002123A803F06AF9DFF85481FA
:1048D0004E491C22C8F80000A8312AA8FBF703FDA6
:1048E00000212AA803F05CF9DFF83C9147491C221B
:1048F000C9F80000C43131A8FBF7F5FC002131A84C
:1049000003F04EF949491C220860404938A8E031BB
:10491000FBF7E9FC002138A803F042F9DFF810A109
:104920003A491C22CAF80000FC313FA8FBF7DBFC27
:1049300000213FA803F034F9DFF8F8B0CBF800000D
:10494000206810B13CA001F0CFFF386810B141A041
:1049500001F0CAFF306810B145A001F0C5FF2C4836
:10496000006810B149A001F0BFFF286810B14EA047
:1049700001F0BAFFDBF8000010B151A001F0B4FF64
:10498000D8F8000010B155A001F0AEFFD9F8000032
:1049900010B159A001F0A8FFDAF8000010B15EA034
:1049A00001F0A2FF64A001F09FFF66A001F09CFF50
:1049B00067A001F099FF69A001F096FF47B0BDE83C
:1049C000F08F000072746F73206C6F6164696E67A2
:1049D0002E2E2E2E2E2E2E2E2E2E2E0D0A000000C6
:1049E0005C2020207C2020202F0D0A002D20207804
:1049F000636A6B20202D0D0A000000002F2020206C
:104A0000207C2020205C0D0A00000000C0930008DC
:104A1000A0000020F8000020F4000020B4000020D6
:104A20009C000020C0000020C4000020980000204E
:104A3000EC000020000100207267625F7461736BFC
:104A40005F63726561745F737563657373210D0ACB
:104A50000000000062757A7A65725F7461736B5F43
:104A600063726561745F737563657373210D0A000A
:104A70006C63645F7461736B5F63726561745F73B1
:104A80007563657373210D0A000000006B65795F23
:104A90007461736B5F63726561745F737563657373
:104AA00073210D0A0000000070635F7461736B5F17
:104AB00063726561745F737563657373210D0A00BA
:104AC000736572766F5F7461736B5F637265617437
:104AD0005F737563657373210D0A00006D6F746FEA
:104AE000725F7461736B5F63726561745F7375632A
:104AF000657373210D0A0000456E636F6465725F14
:104B00007461736B5F63726561745F737563657302
:104B100073210D0A000000004D5055363035305FCE
:104B20007461736B5F63726561745F7375636573E2
:104B300073210D0A0000000020202F5C5F2F5C20F5
:104B4000200D0A002028206F2E6F2029200D0A003A
:104B500020203E205E203C20200D0A0020D0C7B33C
:104B6000C8D7A3C4FACAB9D3C3D2BBC2B7CBB3B7F1
:104B7000E7A3A128A5CEA3FEA88CA3FE2920202070
:104B80000D0A00002DE9F04387B014216846FBF7B9
:104B9000C5FB37480024016841F01001016001683D
:104BA00001F010010591016841F080010160016888
:104BB00001F080010591016841F001010160016887
:104BC00001F001010591016841F0020101600168F5
:104BD00001F002010591016841F0080101600168DE
:104BE00001F008010591016841F0040101600068CD
:104BF000204F00F004004FF48E75059000222946E6
:104C00003846FDF730F9DFF8708000220221404677
:104C1000FDF729F9DFF864904FF4E04601223146B0
:104C20004846FDF720F900950125CDE90154694674
:104C300038460394FDF71AF802200090CDE901549C
:104C4000694640460394FDF711F80096CDE90154FA
:104C5000694648460394FDF709F803208DE83100C2
:104C600069460748FDF702F807B0BDE8F083000089
:104C7000303802400000024000040240000C0240B4
:104C800000100240104810B50E4901604FF48271C7
:104C90004160002102228160C0E9031201224261C9
:104CA000520282611822C0E90721416281620A2111
:104CB000C162FDF7EDFC002803D0BDE81040FCF711
:104CC00067BB10BD00300140000B002010B588B05C
:104CD0001C216846FBF722FB15481449002401609B
:104CE0000921C0E9011444F29F11C0E90314846151
:104CF000FDF790FE08B1FCF74BFB0D48FEF743FAB9
:104D000008B1FCF745FB6020CDE9000402940022C5
:104D1000694607480494FEF7D0F908B1FCF738FB60
:104D20000348FEF73DF908B010BD00000044014003
:104D3000E00D002010B588B01C216846FBF7EEFAA4
:104D400015481449002401600921C0E9011444F206
:104D50009F11C0E903148461FDF75CFE08B1FCF704
:104D600017FB0D48FEF70FFA08B1FCF711FB6020A6
:104D7000CDE9000402940022694607480494FEF736
:104D80009CF908B1FCF704FB0348FEF709F908B0E9
:104D900010BD000000480140280E002010B588B06A
:104DA0001C216846FBF7BAFA164815490024016031
:104DB0005321C0E9011444F61F61C0E90314846162
:104DC000FEF7E1F908B1FCF7E3FA6020CDE9000451
:104DD0000294002269460B480494FEF76EF908B16C
:104DE000FCF7D6FA042269460648FEF766F908B1D0
:104DF000FCF7CEFA0348FEF7D3F808B010BD000068
:104E000000180040700E002010B592B000240F94DE
:104E10001C2168461094FBF781FA202107A8FBF7B4
:104E20007DFA2C482A4901600921C0E9011444F2A5
:104E30009F11C0E9031444618461FEF7A4F908B12D
:104E4000FCF7A6FA0F940FA922481094FDF79AFDDB
:104E500008B1FCF79DFA6020CDE9000402940394A8
:104E600004940594002269461A480694FEF725F931
:104E700008B1FCF78DFA042269461648FEF71DF9C1
:104E800008B1FCF785FA082269461248FEF715F9C1
:104E900008B1FCF77DFA0C2269460E48FEF70DF9C1
:104EA00008B1FCF775FA0794089409944FF4005080
:104EB0000A94CDE90B4007A906480E94FDF737FD8B
:104EC00008B1FCF765FA0348FEF76AF812B010BDA6
:104ED00000000140580B002010B58CB0242168461A
:104EE000FBF71CFA0024154809944FF080410A94FE
:104EF000C0E90014611EC0E902410461846103201D
:104F0000CDE900040120CDE902040494CDE9054077
:104F10000794694609480894FDF730FE08B1FCF78C
:104F200037FA099409A905480A94FDF72BFD0028D2
:104F300001D0FCF72DFA0CB010BD0000A00B002032
:104F400010B58CB024216846FBF7E8F90024164818
:104F5000099414490A94C0E900144FF6FF71C0E99E
:104F60000241046184610320CDE900040120CDE900
:104F700002040494CDE90540079469460A48089460
:104F8000FDF7FCFD08B1FCF703FA099409A90648EE
:104F90000A94FDF7F7FC002801D0FCF7F9F90CB0F2
:104FA00010BD000000040040E80B002010B58CB0DC
:104FB00024216846FBF7B2F90024164809941449E5
:104FC0000A94C0E900144FF6FF71C0E90241046180
:104FD00084610320CDE900040120CDE9020404949A
:104FE000CDE90540079469460A480894FDF7C6FDD7
:104FF00008B1FCF7CDF9099409A906480A94FDF710
:10500000C1FC002801D0FCF7C3F90CB010BD0000B2
:1050100000080040300C002010B58CB024216846F8
:10502000FBF77CF900241548099413490A94C0E958
:105030000014611EC0E90241046184610320CDE9CE
:1050400000040120CDE902040494CDE90540079451
:1050500069460A480894FDF791FD08B1FCF798F9F4
:10506000099409A905480A94FDF78CFC002801D091
:10507000FCF78EF90CB010BD000C0040780C00203D
:105080001CB500240E4800940C490194C0E900149A
:105090004FF6FF71C0E902418461FDF7BBFC08B126
:1050A000FCF776F90094694605480194FDF76AFC1F
:1050B000002801D0FCF76CF91CBD00000010004076
:1050C000C00C00201CB500240E4800940C4901942B
:1050D00001605321C0E9011463218461C160FDF7BF
:1050E00099FC08B1FCF754F900946946054801940D
:1050F000FDF748FC002801D0FCF74AF91CBD000070
:1051000000140040080D002010B592B000240F9448
:105110001C2168461094FBF701F9202107A8FBF732
:10512000FDF82C482A490160A721C0E9011444F682
:105130001F61C0E9031444618461FEF724F808B1DB
:10514000FCF726F90F940FA922481094FDF71AFCDA
:1051500008B1FCF71DF96020CDE900040294039426
:1051600004940594002269461A480694FDF7A5FFA9
:1051700008B1FCF70DF9042269461648FDF79DFFBA
:1051800008B1FCF705F9082269461248FDF795FFBA
:1051900008B1FCF7FDF80C2269460E48FDF78DFFBB
:1051A00008B1FCF7F5F80794089409944FF40050FF
:1051B0000A94CDE90B4007A906480E94FDF7B7FB0A
:1051C00008B1FCF7E5F80348FDF7EAFE12B010BDA0
:1051D00000040140500D002010B588B01C21684625
:1051E000FBF79CF816481549002401600921C0E925
:1051F000011444F29F11C0E903148461FDF7C3FF59
:1052000008B1FCF7C5F86020CDE900040294002243
:1052100069460B480494FDF750FF08B1FCF7B8F855
:10522000042269460648FDF748FF08B1FCF7B0F8CC
:105230000348FDF7B5FE08B010BD00000040014076
:10524000980D00200C4810B50A4901604FF4E13177
:105250004160002181600C22C160C0E904128161BB
:10526000C161FEF7FFF9002803D0BDE81040FCF74C
:105270008FB810BD004C0040B80E00200C4810B58F
:105280000A4901604FF4E1314160002181600C2244
:10529000C160C0E904128161C161FEF7E3F9002831
:1052A00003D0BDE81040FCF773B810BD00100140FA
:1052B000FC0E00200C4810B50A4901604FF4E131A2
:1052C0004160002181600C22C160C0E9041281614B
:1052D000C161FEF7C7F9002803D0BDE81040FCF714
:1052E00057B810BD00440040400F00200C4810B5D6
:1052F0000A4901604FF4E1314160002181600C22D4
:10530000C160C0E904128161C161FEF7ABF90028F8
:1053100003D0BDE81040FCF73BB810BD004800408A
:10532000840F0020FEE7000010B500211648FDF7AD
:105330003BFD04211448FDF737FD1348FDF7DEFB64
:1053400000211248FDF730FD04211048FDF72CFD27
:105350000E48FDF7D3FB00210D48FDF725FD042184
:105360000B48FDF721FD0A48FDF7C8FB002109485D
:10537000FDF71AFD04210748FDF716FDBDE81040B2
:105380000448FDF7BBBB0000A00B0020E80B002089
:10539000300C0020780C002010B503781F49002243
:1053A0002BB3012B25D0022B35D0032B1ED11C4B48
:1053B0001C68646A24B244601C6862621A681268DD
:1053C000C2F30012427042685242642342605A4360
:1053D00000EE102AD1ED030AB8EEC00A20EE200A32
:1053E000D1ED040A80EE201A80ED031A10BD0D4B9A
:1053F00000E00D4B1C68646A24B244601C68626261
:105400001A6812686FF06303C2F3001242704268B8
:1054100052424260DBE7054BCAE70000F85100202A
:10542000780C0020A00B0020E80B0020300C00209E
:1054300010B500211648FDF71BFF00211548FDF7A8
:1054400017FF00211448FDF713FF04211248FDF750
:105450000FFF00211148FDF70BFF04210F48FDF756
:1054600007FF08210D48FDF703FF0C210B48FDF74E
:10547000FFFE0B49002008600A4908600A4948639A
:1054800088630A4948638863C863086410BD0000E4
:10549000E00D0020280E0020980D0020580B002061
:1054A00034440140344801400040014000000140C4
:1054B00030B544F29F125342914201DB114602E0A3
:1054C000994200DC194604788CB1012C23D0214B81
:1054D000022C33D0032C09D18182CC0F847532D0B9
:1054E0000846FBF783FA101AD8631A6430BD81822C
:1054F000CD0F194B194C857506D01A600846FBF77D
:1055000075FA101A206030BD0846FBF76FFA101AC2
:105510001860226030BD8182CC0F114B847506D19A
:105520000846FBF763FA101A58639A6330BD5A6352
:105530000846FBF75BFA101A986330BD8182CC0FE6
:105540008475F4D0ECE7DA630846FBF74FFA101ADB
:10555000186430BD0000014034440140344801402B
:1055600000400140FBF762FDFFF762FF03F074FDAE
:10557000134C124904F1280504F1500604F1780790
:10558000086014210D4803F019F9B4F918100C48FB
:10559000FFF78EFF0A48B5F918102830FFF788FF8B
:1055A0000748B6F918105030FFF782FF0448B7F9E2
:1055B00018107830FFF77CFFE3E70000B800002008
:1055C00058510020FEE700002DE9FF410546014645
:1055D0001DA001F089F91E4C20787B2831D160197B
:1055E00010F8010C7D282CD12179E07801F052F9D6
:1055F000DFF8608088ED040AA179607901F04AF94A
:1056000088ED050A217AE07901F044F988ED060A6F
:1056100010EE100AFBF74CF806460F46D8F81400B7
:10562000FBF746F804460D46D8F81000FBF740F8A3
:105630008DE8F00041EC100B07A053EC102B01F0AB
:1056400053F9BDE8FF81000025640D0A0000000049
:1056500010010020145200202566202566202566B2
:10566000200D0A00364D2878002864D0354800788F
:10567000002860D0344C7B20DFED350A20703348A1
:1056800090ED010A20EE200ABDEEC00A10EE101ABD
:10569000090AA17010EE101AE17090ED020A20EED6
:1056A000200ABDEEC00A10EE101A090A217110EE90
:1056B000101A617190ED030A20EE200ABDEEC00AB7
:1056C00010EE100A000AA07110EE100AE0712148D5
:1056D00001880A0A2272617241880A0AA272E17282
:1056E0008088010A217360731B4801880A0AA2732B
:1056F000E17341880A0A227461748088010AA174E6
:10570000E0741648012190ED000A20EE200ABDEE5B
:10571000C00A10EE100A207510EE100A000A60751B
:105720001620FBF7F5FCA0757D20E07518222146B8
:105730000B48FEF7D9F9642002F026FA93E700003F
:10574000F0000020C8000020A00200201452002019
:1057500000007A44DA000020E6000020AC000020BF
:10576000FC0E0020F7EE002AF7EE003A82EE804AA7
:10577000DFED462AB5EEC02A62EE222A83EEA23A77
:1057800080ED044AF1EE10FA04D19FED412A80ED3C
:10579000082A01E080ED083A31EE612A80ED022A04
:1057A00091ED041AF1EE412AB4EEE22AF1EE10FA7C
:1057B00002D8B0EE622A06E0B4EEC12AF1EE10FA89
:1057C00001DDB0EE412A80ED022A91ED011A61EE71
:1057D000022A90ED051A02EE801A80ED051AD1ED2D
:1057E000052AF1EE623AB4EEE31AF1EE10FA02D8AD
:1057F000B0EE631A06E0B4EEE21AF1EE10FA01DD43
:10580000B0EE621A80ED051AD0ED032A72EE622A1C
:1058100062EE842AC0ED072AD1ED023A63EEA22A95
:1058200073EE003A80EE233A90ED010A72EEC02A40
:1058300003EE220A80ED060AD1ED062AB1EE623AA5
:10584000B4EEC30AF1EE10FA02D8B0EE430A06E055
:10585000B4EEE20AF1EE10FA01DDB0EE620A80ED7C
:10586000060A80ED010AD1ED002A91ED033A62EEBD
:10587000822A40EE832A32EE800A30EE010A80ED61
:10588000090A80ED032AC0ED001A7047DB0FC940FA
:105890000000000070B540F380020C4D04464FF448
:1058A00000512846521CFCF7DEFA44F34002A914CA
:1058B0002846521CFCF7D7FA44F300022846BDE8FC
:1058C00070404FF48041521CFCF7CDBA000C0240EE
:1058D0000F4C01250F4E25704FF47A773078002851
:1058E000207801D028B105E080F001002070C820A8
:1058F00008E0257020784006000E2070042800D9AA
:105900002570384602F040F92078FFF7C3FFE5E73D
:10591000FC000020C800002000B585B014216846B6
:10592000FAF7FCFC4FF40060009000200190012089
:1059300002900220039069460248FCF797F905B0EF
:1059400000BD00000004024000B585B01421684687
:10595000FAF7E4FC4FF40060009011200190002061
:1059600002900220039069460248FCF77FF905B0D7
:1059700000BD0000000402400148FCF70BBE00001F
:10598000000B002010B5806B0021C187C186FCF799
:10599000FFFD10BD38B504461248134B0068B0FB3C
:1059A000F3F04FF47A73584300906068B0F5827F4B
:1059B0000DD10B46009200228021204600F016F8FF
:1059C00070B1606D40F020006065032038BD009824
:1059D00030B1401E009020688068C0430006F6D5B4
:1059E000002038BD1000002000366E012DE9F8437C
:1059F0001E46914688460446089DFCF739FA401B2E
:105A0000351AFCF735FA074625480068C0F3CB3055
:105A1000684338E0701C37D0FCF72AFAC01BA84254
:105A200003D215B1009860B32CE02068416821F0E2
:105A3000E00141606068B0F5827F0BD1A068B0F5ED
:105A4000004F02D0B0F5806F04D12068016821F0CA
:105A500040010160A06AB0F5005F09D120680168CB
:105A600021F4005101602068016841F40051016097
:105A7000012084F85100002084F850000320BDE884
:105A8000F8830025401E00902068816838EA0100F4
:105A900004D000214945BDD10020F0E70121F9E7FC
:105AA0001000002010B5974CB3EE020A2DED068BC6
:105AB0009FED958B9FED969B9FED97AB012837D07F
:105AC000022862D003287DD004287CD0944C05287D
:105AD0007AD0062879D100EE901A2068B8EE601AC4
